{
  "contractName": "IdentityModel",
  "abi": [
    {
      "constant": true,
      "inputs": [],
      "name": "personCount",
      "outputs": [
        {
          "name": "",
          "type": "uint256"
        }
      ],
      "payable": false,
      "stateMutability": "view",
      "type": "function",
      "signature": "0x78495bf8"
    },
    {
      "constant": true,
      "inputs": [
        {
          "name": "",
          "type": "uint256"
        }
      ],
      "name": "persons",
      "outputs": [
        {
          "name": "firstName",
          "type": "string"
        },
        {
          "name": "lastName",
          "type": "string"
        },
        {
          "name": "addrss",
          "type": "string"
        },
        {
          "name": "cin",
          "type": "string"
        },
        {
          "name": "date",
          "type": "string"
        },
        {
          "name": "blockHash",
          "type": "string"
        }
      ],
      "payable": false,
      "stateMutability": "view",
      "type": "function",
      "signature": "0xa2f9eac6"
    },
    {
      "inputs": [],
      "payable": false,
      "stateMutability": "nonpayable",
      "type": "constructor",
      "signature": "constructor"
    },
    {
      "anonymous": false,
      "inputs": [
        {
          "indexed": false,
          "name": "firstName",
          "type": "string"
        },
        {
          "indexed": false,
          "name": "lastName",
          "type": "string"
        },
        {
          "indexed": false,
          "name": "addrss",
          "type": "string"
        },
        {
          "indexed": false,
          "name": "cin",
          "type": "string"
        },
        {
          "indexed": false,
          "name": "date",
          "type": "string"
        },
        {
          "indexed": false,
          "name": "blockHash",
          "type": "string"
        },
        {
          "indexed": false,
          "name": "personNumber",
          "type": "uint256"
        }
      ],
      "name": "PersonCreated",
      "type": "event",
      "signature": "0x5a6751be9e01f341e8d2f0c4356f1e7af8781857bb4aca2c250306d562f003b5"
    },
    {
      "constant": false,
      "inputs": [
        {
          "name": "_firstName",
          "type": "string"
        },
        {
          "name": "_lastName",
          "type": "string"
        },
        {
          "name": "_addrss",
          "type": "string"
        },
        {
          "name": "_cin",
          "type": "string"
        },
        {
          "name": "_date",
          "type": "string"
        },
        {
          "name": "_blockHash",
          "type": "string"
        }
      ],
      "name": "createPerson",
      "outputs": [],
      "payable": false,
      "stateMutability": "nonpayable",
      "type": "function",
      "signature": "0xf57e2520"
    }
  ],
  "bytecode": "0x60806040523480156200001157600080fd5b5060c0604051908101604052806040805190810160405280600781526020017f796f756e6573730000000000000000000000000000000000000000000000000081525081526020016040805190810160405280600781526020017f616162616f75690000000000000000000000000000000000000000000000000081525081526020016040805190810160405280600581526020017f726162617400000000000000000000000000000000000000000000000000000081525081526020016040805190810160405280600781526020017f583431313434390000000000000000000000000000000000000000000000000081525081526020016040805190810160405280601781526020017f323032322d30342d30362030323a30393a33302e3337350000000000000000008152508152602001606060405190810160405280604081526020017f343043463744424139373630413134464442333130344345354431323135333481526020017f3944433337353135373645313234433331314233353238364643333635384443815250815250600160008081526020019081526020016000206000820151816000019080519060200190620001d692919062000283565b506020820151816001019080519060200190620001f592919062000283565b5060408201518160020190805190602001906200021492919062000283565b5060608201518160030190805190602001906200023392919062000283565b5060808201518160040190805190602001906200025292919062000283565b5060a08201518160050190805190602001906200027192919062000283565b50905050600160008190555062000332565b828054600181600116156101000203166002900490600052602060002090601f016020900481019282601f10620002c657805160ff1916838001178555620002f7565b82800160010185558215620002f7579182015b82811115620002f6578251825591602001919060010190620002d9565b5b5090506200030691906200030a565b5090565b6200032f91905b808211156200032b57600081600090555060010162000311565b5090565b90565b610f8880620003426000396000f3fe608060405260043610610057576000357c0100000000000000000000000000000000000000000000000000000000900463ffffffff16806378495bf81461005c578063a2f9eac614610087578063f57e252014610357575b600080fd5b34801561006857600080fd5b50610071610712565b6040518082815260200191505060405180910390f35b34801561009357600080fd5b506100c0600480360360208110156100aa57600080fd5b8101908080359060200190929190505050610718565b6040518080602001806020018060200180602001806020018060200187810387528d818151815260200191508051906020019080838360005b838110156101145780820151818401526020810190506100f9565b50505050905090810190601f1680156101415780820380516001836020036101000a031916815260200191505b5087810386528c818151815260200191508051906020019080838360005b8381101561017a57808201518184015260208101905061015f565b50505050905090810190601f1680156101a75780820380516001836020036101000a031916815260200191505b5087810385528b818151815260200191508051906020019080838360005b838110156101e05780820151818401526020810190506101c5565b50505050905090810190601f16801561020d5780820380516001836020036101000a031916815260200191505b5087810384528a818151815260200191508051906020019080838360005b8381101561024657808201518184015260208101905061022b565b50505050905090810190601f1680156102735780820380516001836020036101000a031916815260200191505b50878103835289818151815260200191508051906020019080838360005b838110156102ac578082015181840152602081019050610291565b50505050905090810190601f1680156102d95780820380516001836020036101000a031916815260200191505b50878103825288818151815260200191508051906020019080838360005b838110156103125780820151818401526020810190506102f7565b50505050905090810190601f16801561033f5780820380516001836020036101000a031916815260200191505b509c5050505050505050505050505060405180910390f35b34801561036357600080fd5b50610710600480360360c081101561037a57600080fd5b810190808035906020019064010000000081111561039757600080fd5b8201836020820111156103a957600080fd5b803590602001918460018302840111640100000000831117156103cb57600080fd5b91908080601f016020809104026020016040519081016040528093929190818152602001838380828437600081840152601f19601f8201169050808301925050505050505091929192908035906020019064010000000081111561042e57600080fd5b82018360208201111561044057600080fd5b8035906020019184600183028401116401000000008311171561046257600080fd5b91908080601f016020809104026020016040519081016040528093929190818152602001838380828437600081840152601f19601f820116905080830192505050505050509192919290803590602001906401000000008111156104c557600080fd5b8201836020820111156104d757600080fd5b803590602001918460018302840111640100000000831117156104f957600080fd5b91908080601f016020809104026020016040519081016040528093929190818152602001838380828437600081840152601f19601f8201169050808301925050505050505091929192908035906020019064010000000081111561055c57600080fd5b82018360208201111561056e57600080fd5b8035906020019184600183028401116401000000008311171561059057600080fd5b91908080601f016020809104026020016040519081016040528093929190818152602001838380828437600081840152601f19601f820116905080830192505050505050509192919290803590602001906401000000008111156105f357600080fd5b82018360208201111561060557600080fd5b8035906020019184600183028401116401000000008311171561062757600080fd5b91908080601f016020809104026020016040519081016040528093929190818152602001838380828437600081840152601f19601f8201169050808301925050505050505091929192908035906020019064010000000081111561068a57600080fd5b82018360208201111561069c57600080fd5b803590602001918460018302840111640100000000831117156106be57600080fd5b91908080601f016020809104026020016040519081016040528093929190818152602001838380828437600081840152601f19601f820116905080830192505050505050509192919290505050610ae4565b005b60005481565b6001602052806000526040600020600091509050806000018054600181600116156101000203166002900480601f0160208091040260200160405190810160405280929190818152602001828054600181600116156101000203166002900480156107c45780601f10610799576101008083540402835291602001916107c4565b820191906000526020600020905b8154815290600101906020018083116107a757829003601f168201915b505050505090806001018054600181600116156101000203166002900480601f0160208091040260200160405190810160405280929190818152602001828054600181600116156101000203166002900480156108625780601f1061083757610100808354040283529160200191610862565b820191906000526020600020905b81548152906001019060200180831161084557829003601f168201915b505050505090806002018054600181600116156101000203166002900480601f0160208091040260200160405190810160405280929190818152602001828054600181600116156101000203166002900480156109005780601f106108d557610100808354040283529160200191610900565b820191906000526020600020905b8154815290600101906020018083116108e357829003601f168201915b505050505090806003018054600181600116156101000203166002900480601f01602080910402602001604051908101604052809291908181526020018280546001816001161561010002031660029004801561099e5780601f106109735761010080835404028352916020019161099e565b820191906000526020600020905b81548152906001019060200180831161098157829003601f168201915b505050505090806004018054600181600116156101000203166002900480601f016020809104026020016040519081016040528092919081815260200182805460018160011615610100020316600290048015610a3c5780601f10610a1157610100808354040283529160200191610a3c565b820191906000526020600020905b815481529060010190602001808311610a1f57829003601f168201915b505050505090806005018054600181600116156101000203166002900480601f016020809104026020016040519081016040528092919081815260200182805460018160011615610100020316600290048015610ada5780601f10610aaf57610100808354040283529160200191610ada565b820191906000526020600020905b815481529060010190602001808311610abd57829003601f168201915b5050505050905086565b60c06040519081016040528087815260200186815260200185815260200184815260200183815260200182815250600160008060008154809291906001019190505581526020019081526020016000206000820151816000019080519060200190610b50929190610eb7565b506020820151816001019080519060200190610b6d929190610eb7565b506040820151816002019080519060200190610b8a929190610eb7565b506060820151816003019080519060200190610ba7929190610eb7565b506080820151816004019080519060200190610bc4929190610eb7565b5060a0820151816005019080519060200190610be1929190610eb7565b509050507f5a6751be9e01f341e8d2f0c4356f1e7af8781857bb4aca2c250306d562f003b58686868686866001600054036040518080602001806020018060200180602001806020018060200188815260200187810387528e818151815260200191508051906020019080838360005b83811015610c6c578082015181840152602081019050610c51565b50505050905090810190601f168015610c995780820380516001836020036101000a031916815260200191505b5087810386528d818151815260200191508051906020019080838360005b83811015610cd2578082015181840152602081019050610cb7565b50505050905090810190601f168015610cff5780820380516001836020036101000a031916815260200191505b5087810385528c818151815260200191508051906020019080838360005b83811015610d38578082015181840152602081019050610d1d565b50505050905090810190601f168015610d655780820380516001836020036101000a031916815260200191505b5087810384528b818151815260200191508051906020019080838360005b83811015610d9e578082015181840152602081019050610d83565b50505050905090810190601f168015610dcb5780820380516001836020036101000a031916815260200191505b5087810383528a818151815260200191508051906020019080838360005b83811015610e04578082015181840152602081019050610de9565b50505050905090810190601f168015610e315780820380516001836020036101000a031916815260200191505b50878103825289818151815260200191508051906020019080838360005b83811015610e6a578082015181840152602081019050610e4f565b50505050905090810190601f168015610e975780820380516001836020036101000a031916815260200191505b509d505050505050505050505050505060405180910390a1505050505050565b828054600181600116156101000203166002900490600052602060002090601f016020900481019282601f10610ef857805160ff1916838001178555610f26565b82800160010185558215610f26579182015b82811115610f25578251825591602001919060010190610f0a565b5b509050610f339190610f37565b5090565b610f5991905b80821115610f55576000816000905550600101610f3d565b5090565b9056fea165627a7a72305820c189bfe39b6cf64aafb5ee5a865e8b6031f5d066ae2b23cfc233de635e7b39c10029",
  "source": "pragma solidity ^0.5.0;\r\n\r\ncontract IdentityModel {\r\n    uint256 public personCount;\r\n\r\n    struct Person {\r\n        string firstName;\r\n        string lastName;\r\n        string addrss;\r\n        string cin;\r\n        string date;\r\n        string blockHash;\r\n    }\r\n\r\n    mapping(uint256 => Person) public persons;\r\n\r\n    event PersonCreated(string firstName, string lastName, string addrss, string cin, string date, string blockHash, uint256 personNumber);\r\n\r\n    constructor() public {\r\n        persons[0] = Person(\"youness\", \"aabaoui\", \"rabat\", \"X411449\", \"2022-04-06 02:09:30.375\", \"40CF7DBA9760A14FDB3104CE5D1215349DC3751576E124C311B35286FC3658DC\");\r\n        personCount = 1;\r\n    }\r\n\r\n    function createPerson(string memory _firstName, string memory _lastName, string memory _addrss, string memory _cin, string memory _date, string memory _blockHash) public {\r\n        persons[personCount++] = Person(_firstName, _lastName, _addrss, _cin, _date, _blockHash);\r\n\r\n        emit PersonCreated(_firstName, _lastName, _addrss, _cin, _date, _blockHash, personCount - 1);\r\n    }\r\n}",
  "sourcePath": "E:/INPT/S4/P1/Security basics/BlockChain/admin_fake_identity/contracts/IdentityModel.sol",
  "compiler": {
    "name": "solc",
    "version": "0.5.0+commit.1d4f565a.Emscripten.clang"
  },
  "schemaVersion": "3.0.1",
  "updatedAt": "2022-04-08T01:18:18.004Z",
  "devdoc": {
    "methods": {}
  },
  "userdoc": {
    "methods": {}
  }
}